:10050E007F381205367F0C1205367F011205367FB5
:04051E00800205361C
:100536008F80C2A5C2A6120456C2A77F0A7E0002F9
:02054600045C53
:100548008F80C2A5D2A6120456C2A77F0A7E0002D7
:02055800045C41
:0603DB008B1A8A1B891C2D
:1003E100E4F51DF51EAB1AAA1BA91C851E82851DED
:1003F100831201C8FF600D120548051EE51E70E558
:04040100051D80E174
:0104050022D4
:10052200EF7007ED2480F5168005ED24C0F516AFB7
:040532001602053672
:06045600D2A77F0A7E0020
:10045C00E4FDFCC3ED9FEC9E5015E4FBFA0BBB00D6
:0F046C00010AEB64704A70F50DBD00010C80E4CD
:01047B00225E
:10047C00E4FDFCEFFBC3ED9BEC94005018758D4B29
:10048C00758BFDC28FD28E308FFDC28FC28E0DBD8B
:05049C0000010C80DEF0
:0104A1002238
:1004C800E4FDFCC3ED9FEC9E5018758CFC758A19F1
:1004D800C28DD28C308DFDC28DC28C0DBD00010C39
:0204E80080E1B1
:0104EA0022EF
:050582007F01020536B7
:08042F008E168F178C188D1931
:100437007F017E00E4FBEBC39519E5186480F8742F
:0E0447008098500AAC16AD171201F50B80E834
:010455002284
:04039A008A128B1325
:10039E00120522851415E515D39400402FE515247A
:1003AE00FFFDE434FFFC7F0A7E0012042FAC12AD79
:1003BE0013CFCDCFCECCCE12025C7C007D0A1202C2
:0C03CE005CED2430FF120548151580CAB4
:0103DA002200
:0A0566008B10120522AF10020548A9
:0604A2008B108A11891283
:1004A800120522E4F513AB10AA11A912851382755F
:0F04B80083001201C8FF6007120548051380E793
:0104C7002212
:1004EB007FC0120536E4F524F5257F20120548055B
:1004FB0025E52570020524C39410E52464809480BF
:02050B0040E8C6
:01050D0022CB
:020406008F2144
:100408007FC0120536E4F522F523C3E52395217450
:1004180080F8652298500F7F201205480523E523B0
:0604280070E8052280E4EB
:01042E0022AB
:0A057000566F6C746167653A200055
:10033A00E4F510C2B6C2B5C2B6D2B4D2B6C2B6A23B
:10034A000292B4D2B6C2B6A20192B4D2B6C2B6A2D0
:10035A000092B4D2B6C2B6D2B4D2B6C2B6D2B4D26F
:10036A00B6C2B6D2B4D2B6C2B6D2B4D2B6C2B67FCA
:10037A000AFE1204C8E4FFE51025E0F510D2B6C261
:0F038A00B6A2B7E43342100FBF08ECD2B5AF10E4
:010399002241
:1002A000D200C201C20212033AAC07E41201138F5A
:1002B0000F8E0E8D0D8C0C7FA17EA07DA07C3CABA3
:1002C0000FAA0EA90DA80C1200038F0B8E0A8D0920
:1002D0008C087BFF7A057970E4FDFF1204A2AF0B56
:1002E000AE0AAD09AC08120147AB07AA06751401A6
:1002F0007D017F0112039A7B2E7D027F011205662C
:10030000E4FFFE7D7A7C44AB0BAA0AA909A8081277
:1003100000031201477C037DE8120207AA04AB0523
:100320007514037D037F0112039A7B567D067F01BE
:0A0330001205667FE87E030204C890
:08057A0012050E1202A080FB25
:10000300EC4D6011E8497017ED33EC3304600DE4F7
:10001300FCFFFEFD22E933E8330470F80201B3125A
:10002300017E58046009E4CC24815006285009025B
:1000330001BD2840030201BAC0E0EB4A7044B98015
:1000430006D0E0FB0201A9EF4E701CBD8008EBFF58
:10005300EAFEE9FD80EBE98DF0A4FEE5F00200EC99
:10006300E9CDF9EAFEEBFFEF89F0A4FCE5F0CE89D8
:10007300F0A42EFFE435F0CD89F0A42DFEE435F095
:100083008067EF4E7005BD80D780C3EF8BF0A4ACC3
:10009300F0EE8BF0A42CFCE435F0F8EF8AF0A42CFE
:1000A300E5F038FCE433CB8DF0A42CFCE5F03BF811
:1000B300EE8AF0A42CFCE5F038F8E433CF89F0A401
:1000C3002CFCE5F038CF3400CE89F0A42FFFE5F007
:1000D3003EFEE433C98DF0A42EFEE5F039CD8AF05F
:1000E300A42FFFE5F03EFEE43DFD33D0E0FB5007D7
:1000F3000BBB000F0201BDEC2CFCEF33FFEE33FE14
:06010300ED33FD02019541
:1001090075F020800E75F010800575F0087D007E71
:10011900007F003392D530D503120292EC334010A0
:10012900EF33FFEE33FEED33FDEC33FCD5F0ED227A
:0E013900E5F0247EA2D513CC92E7CDCEFF22B6
:10014700EDD2E7CD33EC3392D524814006E4FFFEB0
:10015700FDFC22FCE4CFCECDCC24E0501174FF800F
:10016700EDC3CC13CCCD13CDCE13CECF13CF0470AC
:07017700F030D5DE02029218
:10017E00E9D2E7C933E833F892D5EDD2E7CD33ECC7
:07018E0033FC5002B2D52240
:10019500EC30E7100FBF000C0EBE00080DBD0004CB
:1001A5000BEB6014A2D5EB13FCED92E7FD2274FF77
:1001B500FCFDFEFF22E480F8A2D574FF13FC7D80D0
:0301C500E480EFE4
:0300000002055A9C
:0C055A00787FE4F6D8FD75812502057A53
:1001C800BB010CE58229F582E5833AF583E02250EC
:1001D80006E92582F8E622BBFE06E92582F8E22236
:0D01E800E58229F582E5833AF583E4932250
:1001F500EF8DF0A4A8F0CF8CF0A428CE8DF0A42E1E
:02020500FE22D7
:10020700BC000BBE0029EF8DF084FFADF022E4CCDB
:10021700F875F008EF2FFFEE33FEEC33FCEE9DECA4
:10022700984005FCEE9DFE0FD5F0E9E4CEFD22EDEA
:10023700F8F5F0EE8420D21CFEADF075F008EF2F34
:10024700FFED33FD4007985006D5F0F222C398FD25
:050257000FD5F0EA22C2
:10025C00C2D5EC30E709B2D5E4C39DFDE49CFCEEBD
:10026C0030E715B2D5E4C39FFFE49EFE120207C32C
:10027C00E49DFDE49CFC800312020730D507C3E427
:06028C009FFFE49EFE222C
:0E029200C3E49FFFE49EFEE49DFDE49CFC227D
:00000001FF
