:10085900543A004C44523A2000436F6E74726F6CE4
:100869003A204143204F46462000436F6E74726F11
:100879006C3A204143204F4E20004E6967687454FA
:0C088900696D65204143204F4646200069
:10077A00E4F516C2B6C2B5C2B6D2B4D2B6C2B6A2F1
:10078A000292B4D2B6C2B6A20192B4D2B6C2B6A28C
:10079A000092B4D2B6C2B6D2B4D2B6C2B6D2B4D22B
:1007AA00B6C2B6D2B4D2B6C2B6D2B4D2B6C2B67F86
:1007BA000AFE120907E4FFE51625E0F516D2B6C2CD
:0F07CA00B6A2B7E43342160FBF08ECD2B5AF1694
:0107D90022FD
:10061D00D200C201D20212077A7E00AD077C00E43F
:10062D0012031FA804A905AA06AB07E4FFFE7D7FF0
:10063D007C43120204E4FBFA798078BF12000A129F
:10064D00051C7B637A1D799B78391200FB7B0F7A31
:10065D00CF795B783B12000AA804A905AA06AB075F
:10066D00E4FFFE7D807C3F1202048F118E108D0FF2
:10067D008C0E7F337E937D887CC3AB11AA10A90F9E
:10068D00A80E12000A8F158E148D138C127BFF7A13
:10069D00087959E4FD7F011208BCAF15AE14AD13F6
:1006AD00AC12120358AB07AA06751A027D027F0120
:1006BD0012081C7B2E7D047F011209ADE4FFFE7D27
:1006CD007A7C44AB15AA14A913A8121200FB1203CD
:1006DD00587C037DE8120465AA04AB05751A037DE9
:1006ED00057F0112081C7FE87E03120907AF15AEC6
:0506FD0014AD13AC1266
:0107020022D4
:1007DA00C200D201C20212077A7E007C007D641236
:1007EA0004537DFF1204658E0E8F0F7BFF7A087902
:1007FA005C7D097F011208BC751A03AB0FAA0E7D36
:10080A000D7F0112081C7FE87E03120907AE0EAFA6
:01081A000FCE
:01081B0022BA
:100703001207DAAC06AD07E412031F8F0B8E0A8DB6
:10071300098C0812061D1203588E0C8F0DE4FFFE80
:100723007DF07C41AB0BAA0AA909A8081202A160BB
:100733002E402CC3E50D941AE50C9400500B1209BE
:100743006C7BFF7A087962801FD3E50D941DE50C5D
:100753009400402212096C7BFF7A08797380091296
:10076300096C7BFF7A087983E4FD7F021208BC7F62
:06077300107E27120907A9
:01077900225D
:0809B70012094C12070380FB3A
:10090700E4FDFCC3ED9FEC9E5018758DFC758B19AB
:10091700C28FD28E308FFDC28FC28E0DBD00010CEB
:0209270080E16D
:0109290022AB
:06092A00C2A5EB54F0FF32
:10093000EFA2E49284A2E59285A2E69286339287A2
:0C094000D2A77F017E00120907C2A72287
:0F098300AB07C2A612092AEBC454F0FF020930D9
:0F099200AB07D2A612092AEBC454F0FF020930BA
:10094C007F647E001209077F021209837F28120937
:10095C00837F0C1209837F011209837F8002098334
:0408E2007E007C0018
:1008E6008E1B8F1CE51C6401451B7005ED24808062
:1008F6000BE51C6402451B7007ED24C0FF1209833B
:0109060022CE
:080895008E1B8F1C8C1D8D1EB3
:10089D007F017E00E4FBEBC3951EE51D6480F874BB
:0E08AD008098500AAC1BAD1C1204530B80E85F
:0108BB00221A
:04081C008A188B1992
:100820001208E2AA1AEAD39400402DEA24FFFDE45C
:1008300034FFFC7F0A7E00120895AC18AD19CFCDAD
:10084000CFCECCCE1204657C007D0A120465ED2467
:0808500030FF1209921A80CD5D
:01085800227D
:0A09AD00AA031208E2AF0202099249
:0608BC008B168A17891853
:1008C2001208E2E4F519AB16AA17A9188519827560
:0F08D2008300120426FF6007120992051980E7C0
:0108E10022F4
:10096C007FC01209839000007F20120992A3E582B8
:06097C006410458370F2D7
:010982002252
:100003000203C4E86480F8E933E83360110460F064
:10001300ED33EC337009E8FCE9FDEAFEEBFF220463
:1000230060DED3EB9FEA9EE99DE8C2E78CF0C2F75E
:1000330095F0400CE8CCF8E9CDF9EACEFAEBCFFB2A
:1000430012038F85D0F05804700320D5B3E80470F1
:10005300075002B2D50203CE92D5EC0460F7E4CC8C
:10006300C0E0C398F8603B94186008400DD0E0FBF3
:100073000203A6E4FBFAC9FC8028E830E406E4C9DD
:10008300FBE4CAFCE830E305E4C9CACBFCE8540747
:100093006010F8C3E913F9EA13FAEB13FBEC13FC52
:1000A300D8F130F52FC3E49CFCEF9BFFEE9AFEEDF5
:1000B30099FDD0E0FBEF4E4D4C701222DB0302039F
:1000C300CBEC2CFCEF33FFEE33FEED33FDED30E7ED
:1000D300EB0203A6EF2BFFEE3AFEED39FDD0E0FB7A
:1000E30050130BBB00030203CEED13FDEE13FEEF23
:0800F30013FFEC13FC0203A64D
:1000FB00EC4D6011E8497017ED33EC3304600DE4FF
:10010B00FCFFFEFD22E933E8330470F80203C4124E
:10011B00038F58046009E4CC24815006285009024F
:10012B0003CE2840030203CBC0E0EB4A7044B980F6
:10013B0006D0E0FB0203BAEF4E701CBD8008EBFF4C
:10014B00EAFEE9FD80EBE98DF0A4FEE5F00201E4A7
:10015B00E9CDF9EAFEEBFFEF89F0A4FCE5F0CE89DF
:10016B00F0A42EFFE435F0CD89F0A42DFEE435F09C
:10017B008067EF4E7005BD80D780C3EF8BF0A4ACCA
:10018B00F0EE8BF0A42CFCE435F0F8EF8AF0A42C05
:10019B00E5F038FCE433CB8DF0A42CFCE5F03BF818
:1001AB00EE8AF0A42CFCE5F038F8E433CF89F0A408
:1001BB002CFCE5F038CF3400CE89F0A42FFFE5F00E
:1001CB003EFEE433C98DF0A42EFEE5F039CD8AF066
:1001DB00A42FFFE5F03EFEE43DFD33D0E0FB5007DE
:1001EB000BBB000F0203CEEC2CFCEF33FFEE33FE08
:0601FB00ED33FD0203A636
:100201000203CEEC5D046005E8590470030203C4E7
:1002110012038F580460F6EC4860F2EC7004FDFEA6
:10022100FF22C860DB2481C85009C39860025006D0
:100231000203CB9850CAF582E9294B4A7005AB827B
:100241000203BA75F0007C1A7880C3EF9BEE9AED39
:1002510099400DC3EF9BFFEE9AFEED99FDE842F048
:10026100DC23ACF0D0E0FFD0E0FED0E0FDAB82209B
:10027100E7101BEB60BAEC2CFCEF33FFEE33FEED25
:1002810033FD0203A6E803F830E705C0F075F0007E
:10029100EF2FFFEE33FEED33FD40B830E7C280AA09
:1002A10074F8CC6480CCC86480C8F58204604FC304
:1002B100EB9FF5F0EA9E42F0E99D42F0E89C45F0A3
:1002C100603C501DE5825FFFE582D313CB5BCBF42D
:1002D1002B5582FB50280ABA002409B90020088056
:1002E1001DE5825BFBE582D313CF5FCFF4C3132FF0
:1002F1005582FF50090EBE00050DBD00010CC3EB78
:100301009FF5F0EA9E42F0E99D42F0E89C45F060DD
:0903110007CC4820E701B3EC22FF
:10031A0075F020800E75F010800575F0087D007E5E
:10032A00007F003392D530D5031204BAEC33401063
:10033A00EF33FFEE33FEED33FDEC33FCD5F0ED2267
:0E034A00E5F0247EA2D513CC92E7CDCEFF22A3
:10035800EDD2E7CD33EC3392D524814006E4FFFE9D
:10036800FDFC22FCE4CFCECDCC24E0501174FF80FC
:10037800EDC3CC13CCCD13CDCE13CECF13CF047099
:07038800F030D5DE0204BADB
:1004E8003E9248DA3ECCCCCD3F2AAAAB4000000071
:1004F8003F8000003F9837F03FB504F33FD744FCF6
:100508003E3172173EB172173F0515913EDE5BD939
:10051800D2008002C200EDD2E7F8CD33EC3304708C
:100528000BBD800592D50203CE0203C440FBD31451
:1005380060F2F5F07C3FEE7A00C39496C8948B4045
:10054800230AC89469C8941A401A0AC89468C894B7
:100558001F40110AC8945AC89425400805F07A002B
:10056800CDC2E7CDC0F08C168D178E188F19EA23EF
:1005780023C0E024F8F582E43404F5831204D81289
:10058800000AECC0E0EDC0E0EEC0E0EFC0E012040D
:10059800C8A816A917AA18AB19120006D0E0FBD0F4
:1005A800E0FAD0E0F9D0E0B2E7F81202048C168D38
:1005B800178E188F199004E874031203D9A816A986
:1005C80017AA18AB191200FBD0E0600F2404F582BB
:1005D800E43405F5831204D812000A8C168D178EA0
:1005E800188F19D0E0C3947FFDE49400FC12031F18
:1005F8007B187A727931783F1200FBA816A917AADE
:1006080018AB1912000A30000B7BD97A5B79DE78B7
:050618003E1200FB2270
:10038F00E9D2E7C933E833F892D5EDD2E7CD33ECB4
:07039F0033FC5002B2D5222D
:1003A600EC30E7100FBF000C0EBE00080DBD0004B8
:1003B6000BEB6014A2D5EB13FCED92E7FD2274FF64
:1003C600FCFDFEFF22E480F8A2D574FF13FC7D80BD
:0303D600E480EFD1
:1003D900C0E0EFFBEEFAEDF9ECF81200FBD0E0F526
:1003E900F0EFFBEEFAEDF9ECF81204C8A3A3A3A30E
:1003F900E8C0E0E9C0E0EAC0E0EBC0E0C0F012000C
:10040900FB1204D8A3A3A3A312000AD0F0D0E0FBE7
:0D041900D0E0FAD0E0F9D0E0F8D5F0D42220
:030000000209A151
:0C09A100787FE4F6D8FD7581200209B7CC
:10042600BB010CE58229F582E5833AF583E022508B
:1004360006E92582F8E622BBFE06E92582F8E222D5
:0D044600E58229F582E5833AF583E49322EF
:10045300EF8DF0A4A8F0CF8CF0A428CE8DF0A42EBD
:02046300FE2277
:10046500BC000BBE0029EF8DF084FFADF022E4CC7B
:10047500F875F008EF2FFFEE33FEEC33FCEE9DEC44
:10048500984005FCEE9DFE0FD5F0E9E4CEFD22ED8A
:10049500F8F5F0EE8420D21CFEADF075F008EF2FD4
:1004A500FFED33FD4007985006D5F0F222C398FDC5
:0504B5000FD5F0EA2262
:0E04BA00C3E49FFFE49EFEE49DFDE49CFC2253
:1004C800E493FC740193FD740293FE740393FF227A
:1004D800E493F8740193F9740293FA740393FB227A
:00000001FF
