:10089200543A20004C44523A2000436F6E74726FF7
:1008A2006C3A204143204F464600436F6E74726F8C
:1008B2006C3A4143204F4E004E6967687454696D2B
:0908C20065204143204F46460029
:1007AF00E4F516C2B6C2B5C2B6D2B4D2B6C2B6A2BC
:1007BF000292B4D2B6C2B6A20192B4D2B6C2B6A257
:1007CF000092B4D2B6C2B6D2B4D2B6C2B6D2B4D2F6
:1007DF00B6C2B6D2B4D2B6C2B6D2B4D2B6C2B67F51
:1007EF000AFE1209B8E4FFE51625E0F516D2B6C2E7
:0F07FF00B6A2B7E43342160FBF08ECD2B5AF165F
:01080E0022C7
:10065300D200C201D2021207AF7E00AD077C00E4D4
:1006630012031FA804A905AA06AB07E4FFFE7D7FBA
:100673007C43120204E4FBFA798078BF12000A1269
:1006830005527B637A1D799B78391200FB7B0F7AC5
:10069300CF795B783B12000AA804A905AA06AB0729
:1006A300E4FFFE7D807C3F1202048F118E108D0FBC
:1006B3008C0E7F337E937D887CC3AB11AA10A90F68
:1006C300A80E12000A8F158E148D138C127BFF7ADD
:1006D300087992E4FDFF120992AF15AE14AD13AC85
:1006E30012120358AB07AA06751A027D02E4FF1221
:1006F30008517B2E7D04E4FF120A56E4FFFE7D7A47
:100703007C44AB15AA14A913A8121200FB120358B8
:100713007C037DE8120465AA04AB05751A037D0505
:10072300E4FF1208517FE87E031209B8AF15AE1437
:04073300AD13AC1244
:01073700229F
:10080F00C200D201C2021207AF7E007C007D6412CB
:10081F0004537DFF1204658E0E8F0F7BFF7A0879CC
:10082F00967D09E4FF120992751A03AB0FAA0E7D8C
:10083F000DE4FF1208517FE87E031209B8AE0EAF28
:01084F000F99
:010850002285
:1007380012080FAC06AD07E412031F8F0B8E0A8D4B
:10074800098C081206531203588E0C8F0DE4FFFE15
:100758007DF07C41AB0BAA0AA909A8081202A16086
:100768002E402CC3E50D941AE50C9400500B120989
:10077800DB7BFF7A08799C801FD3E50D941DE50C7F
:10078800940040221209DB7BFF7A0879AC800912B9
:1007980009DB7BFF7A0879BAE4FD7F011209927FB1
:0607A800107E271209B8C3
:0107AE002228
:1009FE007F38120A267F0C120A267F01120A267FE2
:040A0E0080020A2632
:100A26008F80C2A5C2A6120946C2A77F0A7E00020F
:020A3600094C69
:100A38008F80C2A5D2A6120946C2A77F0A7E0002ED
:020A4800094C57
:0608CB008B218A22892323
:1008D100E4F524F525AB21AA22A9238525828524C7
:1008E10083120426FF600D120A380525E52570E5FF
:0408F100052480E179
:0108F50022E0
:100A1200EF7007ED2480F51C8005ED24C0F51CAFB6
:040A22001C020A2682
:06094600D2A77F0A7E002B
:10094C00E4FDFCC3ED9FEC9E5015E4FBFA0BBB00E1
:0F095C00010AEB64704A70F50DBD00010C80E4D8
:01096B002269
:10096C00E4FDFCEFFBC3ED9BEC94005018758D4B34
:10097C00758BFDC28FD28E308FFDC28FC28E0DBD96
:05098C0000010C80DEFB
:010991002243
:1009B800E4FDFCC3ED9FEC9E5018758CFC758A19FC
:1009C800C28DD28C308DFDC28DC28C0DBD00010C44
:0209D80080E1BC
:0109DA0022FA
:050A68007F01020A26D7
:08091F008E1C8F1D8C1E8D1F24
:100927007F017E00E4FBEBC3951FE51E6480F8742E
:0E0937008098500AAC1CAD1D1204530B80E8D2
:01094500228F
:040851008A188B195D
:10085500120A12851A1BE51BD39400402FE51B24B1
:10086500FFFDE434FFFC7F0A7E0012091FAC18ADC2
:1008750019CFCDCFCECCCE1204BA7C007D0A12049E
:0C088500BAED2430FF120A38151B80CA9F
:010891002244
:0A0A56008B16120A12AF16020A38BE
:060992008B168A1789187C
:10099800120A12E4F519AB16AA17A9188519827557
:0F09A8008300120426FF6007120A38051980E742
:0109B700221D
:1009DB007FC0120A26E4F50EF50F7F20120A3805A8
:1009EB000FE50F7002050EC39410E50E6480948022
:0209FB0040E8D2
:0109FD0022D7
:0208F6008F264B
:1008F8007FC0120A26E4F527F528C3E52895267453
:1009080080F8652798500F7F20120A380528E528B7
:0609180070E8052780E4F1
:01091E0022B6
:080A60001209FE12073880FBA9
:100003000203C4E86480F8E933E83360110460F064
:10001300ED33EC337009E8FCE9FDEAFEEBFF220463
:1000230060DED3EB9FEA9EE99DE8C2E78CF0C2F75E
:1000330095F0400CE8CCF8E9CDF9EACEFAEBCFFB2A
:1000430012038F85D0F05804700320D5B3E80470F1
:10005300075002B2D50203CE92D5EC0460F7E4CC8C
:10006300C0E0C398F8603B94186008400DD0E0FBF3
:100073000203A6E4FBFAC9FC8028E830E406E4C9DD
:10008300FBE4CAFCE830E305E4C9CACBFCE8540747
:100093006010F8C3E913F9EA13FAEB13FBEC13FC52
:1000A300D8F130F52FC3E49CFCEF9BFFEE9AFEEDF5
:1000B30099FDD0E0FBEF4E4D4C701222DB0302039F
:1000C300CBEC2CFCEF33FFEE33FEED33FDED30E7ED
:1000D300EB0203A6EF2BFFEE3AFEED39FDD0E0FB7A
:1000E30050130BBB00030203CEED13FDEE13FEEF23
:0800F30013FFEC13FC0203A64D
:1000FB00EC4D6011E8497017ED33EC3304600DE4FF
:10010B00FCFFFEFD22E933E8330470F80203C4124E
:10011B00038F58046009E4CC24815006285009024F
:10012B0003CE2840030203CBC0E0EB4A7044B980F6
:10013B0006D0E0FB0203BAEF4E701CBD8008EBFF4C
:10014B00EAFEE9FD80EBE98DF0A4FEE5F00201E4A7
:10015B00E9CDF9EAFEEBFFEF89F0A4FCE5F0CE89DF
:10016B00F0A42EFFE435F0CD89F0A42DFEE435F09C
:10017B008067EF4E7005BD80D780C3EF8BF0A4ACCA
:10018B00F0EE8BF0A42CFCE435F0F8EF8AF0A42C05
:10019B00E5F038FCE433CB8DF0A42CFCE5F03BF818
:1001AB00EE8AF0A42CFCE5F038F8E433CF89F0A408
:1001BB002CFCE5F038CF3400CE89F0A42FFFE5F00E
:1001CB003EFEE433C98DF0A42EFEE5F039CD8AF066
:1001DB00A42FFFE5F03EFEE43DFD33D0E0FB5007DE
:1001EB000BBB000F0203CEEC2CFCEF33FFEE33FE08
:0601FB00ED33FD0203A636
:100201000203CEEC5D046005E8590470030203C4E7
:1002110012038F580460F6EC4860F2EC7004FDFEA6
:10022100FF22C860DB2481C85009C39860025006D0
:100231000203CB9850CAF582E9294B4A7005AB827B
:100241000203BA75F0007C1A7880C3EF9BEE9AED39
:1002510099400DC3EF9BFFEE9AFEED99FDE842F048
:10026100DC23ACF0D0E0FFD0E0FED0E0FDAB82209B
:10027100E7101BEB60BAEC2CFCEF33FFEE33FEED25
:1002810033FD0203A6E803F830E705C0F075F0007E
:10029100EF2FFFEE33FEED33FD40B830E7C280AA09
:1002A10074F8CC6480CCC86480C8F58204604FC304
:1002B100EB9FF5F0EA9E42F0E99D42F0E89C45F0A3
:1002C100603C501DE5825FFFE582D313CB5BCBF42D
:1002D1002B5582FB50280ABA002409B90020088056
:1002E1001DE5825BFBE582D313CF5FCFF4C3132FF0
:1002F1005582FF50090EBE00050DBD00010CC3EB78
:100301009FF5F0EA9E42F0E99D42F0E89C45F060DD
:0903110007CC4820E701B3EC22FF
:10031A0075F020800E75F010800575F0087D007E5E
:10032A00007F003392D530D5031204F0EC3340102D
:10033A00EF33FFEE33FEED33FDEC33FCD5F0ED2267
:0E034A00E5F0247EA2D513CC92E7CDCEFF22A3
:10035800EDD2E7CD33EC3392D524814006E4FFFE9D
:10036800FDFC22FCE4CFCECDCC24E0501174FF80FC
:10037800EDC3CC13CCCD13CDCE13CECF13CF047099
:07038800F030D5DE0204F0A5
:10051E003E9248DA3ECCCCCD3F2AAAAB400000003A
:10052E003F8000003F9837F03FB504F33FD744FCBF
:10053E003E3172173EB172173F0515913EDE5BD903
:10054E00D2008002C200EDD2E7F8CD33EC33047056
:10055E000BBD800592D50203CE0203C440FBD3141B
:10056E0060F2F5F07C3FEE7A00C39496C8948B400F
:10057E00230AC89469C8941A401A0AC89468C89481
:10058E001F40110AC8945AC89425400805F07A00F5
:10059E00CDC2E7CDC0F08C168D178E188F19EA23B9
:1005AE0023C0E0242EF582E43405F58312050E12E5
:1005BE00000AECC0E0EDC0E0EEC0E0EFC0E01204D7
:1005CE00FEA816A917AA18AB19120006D0E0FBD088
:1005DE00E0FAD0E0F9D0E0B2E7F81202048C168D02
:1005EE00178E188F1990051E74031203D9A816A919
:1005FE0017AA18AB191200FBD0E0600F243AF5824F
:10060E00E43405F58312050E12000A8C168D178E32
:10061E00188F19D0E0C3947FFDE49400FC12031FE1
:10062E007B187A727931783F1200FBA816A917AAA7
:10063E0018AB1912000A30000B7BD97A5B79DE7881
:05064E003E1200FB223A
:10038F00E9D2E7C933E833F892D5EDD2E7CD33ECB4
:07039F0033FC5002B2D5222D
:1003A600EC30E7100FBF000C0EBE00080DBD0004B8
:1003B6000BEB6014A2D5EB13FCED92E7FD2274FF64
:1003C600FCFDFEFF22E480F8A2D574FF13FC7D80BD
:0303D600E480EFD1
:1003D900C0E0EFFBEEFAEDF9ECF81200FBD0E0F526
:1003E900F0EFFBEEFAEDF9ECF81204FEA3A3A3A3D8
:1003F900E8C0E0E9C0E0EAC0E0EBC0E0C0F012000C
:10040900FB12050EA3A3A3A312000AD0F0D0E0FBB0
:0D041900D0E0FAD0E0F9D0E0F8D5F0D42220
:03000000020A4AA7
:0C0A4A00787FE4F6D8FD758128020A6070
:10042600BB010CE58229F582E5833AF583E022508B
:1004360006E92582F8E622BBFE06E92582F8E222D5
:0D044600E58229F582E5833AF583E49322EF
:10045300EF8DF0A4A8F0CF8CF0A428CE8DF0A42EBD
:02046300FE2277
:10046500BC000BBE0029EF8DF084FFADF022E4CC7B
:10047500F875F008EF2FFFEE33FEEC33FCEE9DEC44
:10048500984005FCEE9DFE0FD5F0E9E4CEFD22ED8A
:10049500F8F5F0EE8420D21CFEADF075F008EF2FD4
:1004A500FFED33FD4007985006D5F0F222C398FDC5
:0504B5000FD5F0EA2262
:1004BA00C2D5EC30E709B2D5E4C39DFDE49CFCEE5D
:1004CA0030E715B2D5E4C39FFFE49EFE120465C36C
:1004DA00E49DFDE49CFC800312046530D507C3E467
:0604EA009FFFE49EFE22CC
:0E04F000C3E49FFFE49EFEE49DFDE49CFC221D
:1004FE00E493FC740193FD740293FE740393FF2244
:10050E00E493F8740193F9740293FA740393FB2243
:00000001FF
