:1008E400566F6C3A200054656D703A20004C4452A7
:0208F4002000E2
:10071000E4F510C2B6C2B5C2B6D2B4D2B6C2B6A261
:100720000292B4D2B6C2B6A20192B4D2B6C2B6A2F6
:100730000092B4D2B6C2B6D2B4D2B6C2B6D2B4D295
:10074000B6C2B6D2B4D2B6C2B6D2B4D2B6C2B67FF0
:100750000AFE12087FE4FFE51025E0F510D2B6C2CC
:0F076000B6A2B7E43342100FBF08ECD2B5AF100A
:01076F002267
:10068100D200C201C2021207107E00AD077C00E455
:100691001202A67BA17AA079A0783C1200FB8F0BF5
:1006A1008E0A8D098C087BFF7A0879E4E4FD7F01CD
:1006B100120811AF0BAE0AAD09AC081202DFAB078D
:1006C100AA06751401E4FD7F021207AD7B2E7D01A0
:1006D1007F02120920E4FFFE7D7A7C44AB0BAA0A5B
:1006E100A909A8081200FB1202DF7C037DE81203AE
:1006F100ECAA04AB057514037D027F021207AD7BE2
:0F070100567D047F021209207FE87E0302087FE5
:1005A400D200C201D2021207107E00AD077C00E423
:1005B4001202A6A804A905AA06AB07E4FFFE7D7FE4
:1005C4007C43120204E4FBFA798078BF12000A1219
:1005D40004A37B637A1D799B78391200FB7B0F7A25
:1005E400CF795B783B12000AA804A905AA06AB07D9
:1005F400E4FFFE7D807C3F1202048F0B8E0A8D097E
:100604008C087F337E937D887CC3AB0BAA0AA9092F
:10061400A80812000A8F0F8E0E8D0D8C0C7BFF7AAA
:100624000879EA7D067F01120811AF0FAE0EAD0DF9
:10063400AC0C1202DFAB07AA067514027D067F021A
:100644001207AD7B2E7D087F02120920E4FFFE7D98
:100654007A7C44AB0FAA0EA90DA80C1200FB12025F
:10066400DF7C037DE81203ECAA04AB057514037D5B
:0D067400097F021207AD7FE87E0302087FB8
:10077000C200D201C2021207107E007C007D64120A
:1007800003DA7DFF1203EC8E088F097BFF7A08796C
:10079000F17D0D7F01120811751403AB09AA087DC4
:0D07A0000D7F021207AD7FE87E0302087F87
:10085C001208C41206817FE87E0312087F1205A4D9
:10086C007FE87E0312087F1207707FE87E03120870
:03087C007F80E09A
:10087F00E4FDFCC3ED9FEC9E5018758DFC758B1934
:10088F00C28FD28E308FFDC28FC28E0DBD00010C74
:02089F0080E1F6
:0108A1002234
:0608A200C2A5EB54F0FFBB
:1008A800EFA2E49284A2E59285A2E692863392872B
:0C08B800D2A77F017E0012087FC2A72299
:0F08F600AB07C2A61208A2EBC454F0FF0208A879
:0F090500AB07D2A61208A2EBC454F0FF0208A859
:1008C4007F647E0012087F7F021208F67F281208D8
:1008D400F67F0C1208F67F011208F67F800208F6F4
:040837007E007C00C3
:10083B008E158F16E516640145157005ED24808025
:10084B000BE516640245157007ED24C0FF1208F680
:01085B00227A
:0807EA008E158F168C178D1877
:1007F2007F017E00E4FBEBC39518E5176480F87473
:0E0802008098500AAC15AD161203DA0B80E890
:0108100022C5
:0407AD008A128B130E
:1007B100120837AA14EAD39400402DEA24FFFDE47D
:1007C10034FFFC7F0A7E001207EAAC12AD13CFCDD5
:1007D100CFCECCCE1203EC7C007D0A1203ECED24CB
:0807E10030FF1209051A80CD5A
:0107E90022ED
:0A092000AA03120837AF020209050E
:060811008B108A11891210
:10081700120837E4F513AB10AA11A91285138275D4
:0F08270083001203ADFF6007120905051380E778
:01083600229F
:1000030002034BE86480F8E933E83360110460F0DD
:10001300ED33EC337009E8FCE9FDEAFEEBFF220463
:1000230060DED3EB9FEA9EE99DE8C2E78CF0C2F75E
:1000330095F0400CE8CCF8E9CDF9EACEFAEBCFFB2A
:1000430012031685D0F05804700320D5B3E804706A
:10005300075002B2D502035592D5EC0460F7E4CC05
:10006300C0E0C398F8603B94186008400DD0E0FBF3
:1000730002032DE4FBFAC9FC8028E830E406E4C956
:10008300FBE4CAFCE830E305E4C9CACBFCE8540747
:100093006010F8C3E913F9EA13FAEB13FBEC13FC52
:1000A300D8F130F52FC3E49CFCEF9BFFEE9AFEEDF5
:1000B30099FDD0E0FBEF4E4D4C701222DB0302039F
:1000C30052EC2CFCEF33FFEE33FEED33FDED30E766
:1000D300EB02032DEF2BFFEE3AFEED39FDD0E0FBF3
:1000E30050130BBB0003020355ED13FDEE13FEEF9C
:0800F30013FFEC13FC02032DC6
:1000FB00EC4D6011E8497017ED33EC3304600DE4FF
:10010B00FCFFFEFD22E933E8330470F802034B12C7
:10011B00031658046009E4CC2481500628500902C8
:10012B000355284003020352C0E0EB4A7044B980E8
:10013B0006D0E0FB020341EF4E701CBD8008EBFFC5
:10014B00EAFEE9FD80EBE98DF0A4FEE5F00201E4A7
:10015B00E9CDF9EAFEEBFFEF89F0A4FCE5F0CE89DF
:10016B00F0A42EFFE435F0CD89F0A42DFEE435F09C
:10017B008067EF4E7005BD80D780C3EF8BF0A4ACCA
:10018B00F0EE8BF0A42CFCE435F0F8EF8AF0A42C05
:10019B00E5F038FCE433CB8DF0A42CFCE5F03BF818
:1001AB00EE8AF0A42CFCE5F038F8E433CF89F0A408
:1001BB002CFCE5F038CF3400CE89F0A42FFFE5F00E
:1001CB003EFEE433C98DF0A42EFEE5F039CD8AF066
:1001DB00A42FFFE5F03EFEE43DFD33D0E0FB5007DE
:1001EB000BBB000F020355EC2CFCEF33FFEE33FE81
:0601FB00ED33FD02032DAF
:10020100020355EC5D046005E85904700302034BD9
:10021100120316580460F6EC4860F2EC7004FDFE1F
:10022100FF22C860DB2481C85009C39860025006D0
:100231000203529850CAF582E9294B4A7005AB82F4
:1002410002034175F0007C1A7880C3EF9BEE9AEDB2
:1002510099400DC3EF9BFFEE9AFEED99FDE842F048
:10026100DC23ACF0D0E0FFD0E0FED0E0FDAB82209B
:10027100E7101BEB60BAEC2CFCEF33FFEE33FEED25
:1002810033FD02032DE803F830E705C0F075F000F7
:10029100EF2FFFEE33FEED33FD40B830E7C280AA09
:1002A10075F020800E75F010800575F0087D007ED8
:1002B100007F003392D530D503120441EC33401056
:1002C100EF33FFEE33FEED33FDEC33FCD5F0ED22E1
:0E02D100E5F0247EA2D513CC92E7CDCEFF221D
:1002DF00EDD2E7CD33EC3392D524814006E4FFFE17
:1002EF00FDFC22FCE4CFCECDCC24E0501174FF8076
:1002FF00EDC3CC13CCCD13CDCE13CECF13CF047013
:07030F00F030D5DE020441CD
:10046F003E9248DA3ECCCCCD3F2AAAAB40000000EA
:10047F003F8000003F9837F03FB504F33FD744FC6F
:10048F003E3172173EB172173F0515913EDE5BD9B3
:10049F00D2008002C200EDD2E7F8CD33EC33047006
:1004AF000BBD800592D502035502034B40FBD314BD
:1004BF0060F2F5F07C3FEE7A00C39496C8948B40BF
:1004CF00230AC89469C8941A401A0AC89468C89431
:1004DF001F40110AC8945AC89425400805F07A00A5
:1004EF00CDC2E7CDC0F08C108D118E128F13EA2381
:1004FF0023C0E0247FF582E43404F58312045F12F5
:10050F00000AECC0E0EDC0E0EEC0E0EFC0E0120486
:10051F004FA810A911AA12AB13120006D0E0FBD0FE
:10052F00E0FAD0E0F9D0E0B2E7F81202048C108DB7
:10053F00118E128F1390046F7403120360A810A909
:10054F0011AA12AB131200FBD0E0600F248BF582BF
:10055F00E43404F58312045F12000A8C108D118E9F
:10056F00128F13D0E0C3947FFDE49400FC1202A617
:10057F007B187A727931783F1200FBA810A911AA63
:10058F0012AB1312000A30000B7BD97A5B79DE783D
:05059F003E1200FB22EA
:10031600E9D2E7C933E833F892D5EDD2E7CD33EC2D
:0703260033FC5002B2D522A6
:10032D00EC30E7100FBF000C0EBE00080DBD000431
:10033D000BEB6014A2D5EB13FCED92E7FD2274FFDD
:10034D00FCFDFEFF22E480F8A2D574FF13FC7D8036
:03035D00E480EF4A
:10036000C0E0EFFBEEFAEDF9ECF81200FBD0E0F59F
:10037000F0EFFBEEFAEDF9ECF812044FA3A3A3A300
:10038000E8C0E0E9C0E0EAC0E0EBC0E0C0F0120085
:10039000FB12045FA3A3A3A312000AD0F0D0E0FBDA
:0D03A000D0E0FAD0E0F9D0E0F8D5F0D4229A
:03000000020914DE
:0C091400787FE4F6D8FD75812002085CB5
:1003AD00BB010CE58229F582E5833AF583E0225005
:1003BD0006E92582F8E622BBFE06E92582F8E2224F
:0D03CD00E58229F582E5833AF583E4932269
:1003DA00EF8DF0A4A8F0CF8CF0A428CE8DF0A42E37
:0203EA00FE22F1
:1003EC00BC000BBE0029EF8DF084FFADF022E4CCF5
:1003FC00F875F008EF2FFFEE33FEEC33FCEE9DECBE
:10040C00984005FCEE9DFE0FD5F0E9E4CEFD22ED03
:10041C00F8F5F0EE8420D21CFEADF075F008EF2F4D
:10042C00FFED33FD4007985006D5F0F222C398FD3E
:05043C000FD5F0EA22DB
:0E044100C3E49FFFE49EFEE49DFDE49CFC22CC
:10044F00E493FC740193FD740293FE740393FF22F3
:10045F00E493F8740193F9740293FA740393FB22F3
:00000001FF
