:1009A400566F6C3A200054656D703A20004C4452E6
:0209B400200021
:10074800E4F510C2B6C2B5C2B6D2B4D2B6C2B6A229
:100758000292B4D2B6C2B6A20192B4D2B6C2B6A2BE
:100768000092B4D2B6C2B6D2B4D2B6C2B6D2B4D25D
:10077800B6C2B6D2B4D2B6C2B6D2B4D2B6C2B67FB8
:100788000AFE120913E4FFE51025E0F510D2B6C2FF
:0F079800B6A2B7E43342100FBF08ECD2B5AF10D2
:0107A700222F
:1006B700D200C201C202120748AC07E41202AB8F94
:1006C7000F8E0E8D0D8C0C7FA17EA07DA07C3CAB88
:1006D7000FAA0EA90DA80C1200FB8F0B8E0A8D090D
:1006E7008C087BFF7A0979A4E4FDFF1208EDAF0BB4
:1006F700AE0AAD09AC081202DFAB07AA06751401F2
:10070700E4FD7F011207A87B2E7D017F011209E618
:10071700E4FFFE7D7A7C44AB0BAA0AA909A808125C
:1007270000FB1202DF7C037DE81203ECAA04AB0591
:100737007514037D027F011207A87FE87E03020973
:01074700139E
:1005DA00D200C201D2021207487E00AD077C00E4B5
:1005EA001202A6A804A905AA06AB07E4FFFE7D7FAE
:1005FA007C43120204E4FBFA798078BF12000A12E3
:10060A0004D97B637A1D799B78391200FB7B0F7AB8
:10061A00CF795B783B12000AA804A905AA06AB07A2
:10062A00E4FFFE7D807C3F1202048F0B8E0A8D0947
:10063A008C087F337E937D887CC3AB0BAA0AA909F9
:10064A00A80812000A8F0F8E0E8D0D8C0C7BFF7A74
:10065A000979AA7D06E4FF1208EDAF0FAE0EAD0DC3
:10066A00AC0C1202DFAB07AA067514027D067F01E5
:10067A001207A87B2E7D087F011209E6E4FFFE7DA2
:10068A007A7C44AB0FAA0EA90DA80C1200FB120229
:10069A00DF7C037DE81203ECAA04AB057514037D25
:0D06AA00097F011207A87FE87E03020913F3
:1007E900C200D201C2021207487E007C007D641259
:1007F90003DA7DFF1203EC8E088F097BFF7A0979F2
:10080900B17D0DE4FF1208ED751403AB09AA087D4B
:0D0819000D7F011207A87FE87E030209137E
:10097C007F381209B67F0C1209B67F011209B67FB7
:04098C00800209B626
:1009B6008F80C2A5C2A61208A1C2A77F0A7E000226
:0209C60008A780
:1009C8008F80C2A5D2A61208A1C2A77F0A7E000204
:0209D80008A76E
:060826008B1A8A1B891CDD
:10082C00E4F51DF51EAB1AAA1BA91C851E82851D9D
:10083C00831203ADFF600D1209C8051EE51E70E59D
:04084C00051D80E125
:010850002285
:10099000EF7007ED2480F5168005ED24C0F516AF45
:0409A000160209B67C
:0608A100D2A77F0A7E00D1
:1008A700E4FDFCC3ED9FEC9E5015E4FBFA0BBB0087
:0F08B700010AEB64704A70F50DBD00010C80E47E
:0108C600220F
:1008C700E4FDFCEFFBC3ED9BEC94005018758D4BDA
:1008D700758BFDC28FD28E308FFDC28FC28E0DBD3C
:0508E70000010C80DEA1
:0108EC0022E9
:10091300E4FDFCC3ED9FEC9E5018758CFC758A19A1
:10092300C28DD28C308DFDC28DC28C0DBD00010CE9
:0209330080E161
:01093500229F
:0509F0007F010209B6C1
:08087A008E168F178C188D19E2
:100882007F017E00E4FBEBC39519E5186480F874E0
:0E0892008098500AAC16AD171203DA0B80E8FE
:0108A0002235
:0407A8008A128B1313
:1007AC00120990851415E515D39400402FE51524F6
:1007BC00FFFDE434FFFC7F0A7E0012087AAC12AD18
:1007CC0013CFCDCFCECCCE1204417C007D0A1204C7
:0C07DC0041ED2430FF1209C8151580CA39
:0107E80022EE
:0A09E6008B10120990AF100209C82F
:0608ED008B108A11891234
:1008F300120990E4F513AB10AA11A912851382759E
:0F09030083001203ADFF60071209C8051380E7D8
:0109120022C2
:100936007FC01209B6E4F524F5257F201209C80503
:1009460025E52570020524C39410E524648094806F
:0209560040E877
:01095800227C
:020851008F21F5
:100853007FC01209B6E4F522F523C3E5239521747D
:1008630080F8652298500F7F201209C80523E523DD
:0608730070E8052280E49C
:01087900225C
:1009590012097C1206B77FE87E031209131205DA21
:100969007FE87E031209131207E97FE87E03120963
:030979001380E008
:1000030002034BE86480F8E933E83360110460F0DD
:10001300ED33EC337009E8FCE9FDEAFEEBFF220463
:1000230060DED3EB9FEA9EE99DE8C2E78CF0C2F75E
:1000330095F0400CE8CCF8E9CDF9EACEFAEBCFFB2A
:1000430012031685D0F05804700320D5B3E804706A
:10005300075002B2D502035592D5EC0460F7E4CC05
:10006300C0E0C398F8603B94186008400DD0E0FBF3
:1000730002032DE4FBFAC9FC8028E830E406E4C956
:10008300FBE4CAFCE830E305E4C9CACBFCE8540747
:100093006010F8C3E913F9EA13FAEB13FBEC13FC52
:1000A300D8F130F52FC3E49CFCEF9BFFEE9AFEEDF5
:1000B30099FDD0E0FBEF4E4D4C701222DB0302039F
:1000C30052EC2CFCEF33FFEE33FEED33FDED30E766
:1000D300EB02032DEF2BFFEE3AFEED39FDD0E0FBF3
:1000E30050130BBB0003020355ED13FDEE13FEEF9C
:0800F30013FFEC13FC02032DC6
:1000FB00EC4D6011E8497017ED33EC3304600DE4FF
:10010B00FCFFFEFD22E933E8330470F802034B12C7
:10011B00031658046009E4CC2481500628500902C8
:10012B000355284003020352C0E0EB4A7044B980E8
:10013B0006D0E0FB020341EF4E701CBD8008EBFFC5
:10014B00EAFEE9FD80EBE98DF0A4FEE5F00201E4A7
:10015B00E9CDF9EAFEEBFFEF89F0A4FCE5F0CE89DF
:10016B00F0A42EFFE435F0CD89F0A42DFEE435F09C
:10017B008067EF4E7005BD80D780C3EF8BF0A4ACCA
:10018B00F0EE8BF0A42CFCE435F0F8EF8AF0A42C05
:10019B00E5F038FCE433CB8DF0A42CFCE5F03BF818
:1001AB00EE8AF0A42CFCE5F038F8E433CF89F0A408
:1001BB002CFCE5F038CF3400CE89F0A42FFFE5F00E
:1001CB003EFEE433C98DF0A42EFEE5F039CD8AF066
:1001DB00A42FFFE5F03EFEE43DFD33D0E0FB5007DE
:1001EB000BBB000F020355EC2CFCEF33FFEE33FE81
:0601FB00ED33FD02032DAF
:10020100020355EC5D046005E85904700302034BD9
:10021100120316580460F6EC4860F2EC7004FDFE1F
:10022100FF22C860DB2481C85009C39860025006D0
:100231000203529850CAF582E9294B4A7005AB82F4
:1002410002034175F0007C1A7880C3EF9BEE9AEDB2
:1002510099400DC3EF9BFFEE9AFEED99FDE842F048
:10026100DC23ACF0D0E0FFD0E0FED0E0FDAB82209B
:10027100E7101BEB60BAEC2CFCEF33FFEE33FEED25
:1002810033FD02032DE803F830E705C0F075F000F7
:10029100EF2FFFEE33FEED33FD40B830E7C280AA09
:1002A10075F020800E75F010800575F0087D007ED8
:1002B100007F003392D530D503120477EC33401020
:1002C100EF33FFEE33FEED33FDEC33FCD5F0ED22E1
:0E02D100E5F0247EA2D513CC92E7CDCEFF221D
:1002DF00EDD2E7CD33EC3392D524814006E4FFFE17
:1002EF00FDFC22FCE4CFCECDCC24E0501174FF8076
:1002FF00EDC3CC13CCCD13CDCE13CECF13CF047013
:07030F00F030D5DE02047797
:1004A5003E9248DA3ECCCCCD3F2AAAAB40000000B4
:1004B5003F8000003F9837F03FB504F33FD744FC39
:1004C5003E3172173EB172173F0515913EDE5BD97D
:1004D500D2008002C200EDD2E7F8CD33EC330470D0
:1004E5000BBD800592D502035502034B40FBD31487
:1004F50060F2F5F07C3FEE7A00C39496C8948B4089
:10050500230AC89469C8941A401A0AC89468C894FA
:100515001F40110AC8945AC89425400805F07A006E
:10052500CDC2E7CDC0F08C108D118E128F13EA234A
:1005350023C0E024B5F582E43404F5831204951252
:10054500000AECC0E0EDC0E0EEC0E0EFC0E0120450
:1005550085A810A911AA12AB13120006D0E0FBD092
:10056500E0FAD0E0F9D0E0B2E7F81202048C108D81
:10057500118E128F139004A57403120360A810A99D
:1005850011AA12AB131200FBD0E0600F24C1F58253
:10059500E43404F58312049512000A8C108D118E33
:1005A500128F13D0E0C3947FFDE49400FC1202A6E1
:1005B5007B187A727931783F1200FBA810A911AA2D
:1005C50012AB1312000A30000B7BD97A5B79DE7807
:0505D5003E1200FB22B4
:10031600E9D2E7C933E833F892D5EDD2E7CD33EC2D
:0703260033FC5002B2D522A6
:10032D00EC30E7100FBF000C0EBE00080DBD000431
:10033D000BEB6014A2D5EB13FCED92E7FD2274FFDD
:10034D00FCFDFEFF22E480F8A2D574FF13FC7D8036
:03035D00E480EF4A
:10036000C0E0EFFBEEFAEDF9ECF81200FBD0E0F59F
:10037000F0EFFBEEFAEDF9ECF8120485A3A3A3A3CA
:10038000E8C0E0E9C0E0EAC0E0EBC0E0C0F0120085
:10039000FB120495A3A3A3A312000AD0F0D0E0FBA4
:0D03A000D0E0FAD0E0F9D0E0F8D5F0D4229A
:030000000209DA18
:0C09DA00787FE4F6D8FD758125020959EC
:1003AD00BB010CE58229F582E5833AF583E0225005
:1003BD0006E92582F8E622BBFE06E92582F8E2224F
:0D03CD00E58229F582E5833AF583E4932269
:1003DA00EF8DF0A4A8F0CF8CF0A428CE8DF0A42E37
:0203EA00FE22F1
:1003EC00BC000BBE0029EF8DF084FFADF022E4CCF5
:1003FC00F875F008EF2FFFEE33FEEC33FCEE9DECBE
:10040C00984005FCEE9DFE0FD5F0E9E4CEFD22ED03
:10041C00F8F5F0EE8420D21CFEADF075F008EF2F4D
:10042C00FFED33FD4007985006D5F0F222C398FD3E
:05043C000FD5F0EA22DB
:10044100C2D5EC30E709B2D5E4C39DFDE49CFCEED6
:1004510030E715B2D5E4C39FFFE49EFE1203ECC35F
:10046100E49DFDE49CFC80031203EC30D507C3E45A
:060471009FFFE49EFE2245
:0E047700C3E49FFFE49EFEE49DFDE49CFC2296
:10048500E493FC740193FD740293FE740393FF22BD
:10049500E493F8740193F9740293FA740393FB22BD
:00000001FF
