:100A810054656D703A200053657454656D70200093
:1007C900E4F535C2B6C2B5C2B6D2B4D2B6C2B6A283
:1007D9000292B4D2B6C2B6A20192B4D2B6C2B6A23D
:1007E9000092B4D2B6C2B6D2B4D2B6C2B6D2B4D2DC
:1007F900B6C2B6D2B4D2B6C2B6D2B4D2B6C2B67F37
:100809000AFE1209D0E4FFE53525E0F535D2B6C276
:0F081900B6A2B7E43342350FBF08ECD2B5AF3506
:0108280022AD
:1008AD00D200C201C2021207C97E00AD077C00E46E
:1008BD0012031F7BA17AA079A0783C1200FB8F3424
:1008CD008E338D328C317FE87E031209D0AF34AE7A
:0508DD0033AD32AC3127
:0108E20022F3
:10065300D200C201D2021207C97E00AD077C00E4BA
:1006630012031FA804A905AA06AB07E4FFFE7D7FBA
:100673007C43120204E4FBFA798078BF12000A1269
:1006830005527B637A1D799B78391200FB7B0F7AC5
:10069300CF795B783B12000AA804A905AA06AB0729
:1006A300E4FFFE7D807C3F1202048F2C8E2B8D2A6B
:1006B3008C297F337E937D887CC3AB2CAA2BA92AFC
:1006C300A82912000A8F308E2F8D2E8C2D7BFF7A56
:1006D3000A79817D0AE4FF1209AAAF30AE2FAD2E4D
:1006E300AC2D120358AB07AA067535027D0A7F01AC
:1006F30012086C7B2E7D0C7F01120A9DE4FFFE7DA8
:100703007A7C44AB30AA2FA92EA82D1200FB12032A
:10071300587C037DE8120465AA04AB057535037D97
:100723000D7F0112086C7FE87E031209D0AF30AE53
:050733002FAD2EAC2DDE
:01073800229E
:100739001208AD8F308E2F8D2E8C2DE4FFFE7D207B
:100749007C42AB30AA2FA92EA82D1200FBE4FBFA9C
:1007590079A078401202048F2C8E2B8D2A8C297B4C
:10076900FF7A0A7988E4FDFF1209AAAF2CAE2BADF6
:100779002AAC29120358AB07AA06753502E4FD7F96
:100789000112086C7B2E7D027F01120A9DE4FFFE97
:100799007D7A7C44AB2CAA2BA92AA8291200FB122A
:1007A90003587C037DE8120465AA04AB057535037B
:0F07B9007D037F0112086CAF2CAE2BAD2AAC294B
:0107C800220E
:100A1600E4F529C2957F107E001209D0D2957F1089
:0E0A26007E001209D00529E529C394C840E5D9
:010A3400229F
:100A35007F38120A5D7F0C120A5D7F01120A5D7F05
:040A450080020A5DC4
:100A5D008F80C2A5C2A612095EC2A77F0A7E0002C0
:020A6D0009641A
:100A6F008F80C2A5D2A612095EC2A77F0A7E00029E
:020A7F00096408
:0608E3008B088A09890A56
:1008E900E4F50BF50CAB08AA09A90A850C82850B5E
:1008F90083120426FF600D120A6F050CE50C70E5E2
:04090900050B80E179
:01090D0022C7
:100A4900EF7007ED2480F5378005ED24C0F537AF49
:040A590037020A5DF9
:06095E00D2A77F0A7E0013
:10096400E4FDFCC3ED9FEC9E5015E4FBFA0BBB00C9
:0F097400010AEB64704A70F50DBD00010C80E4C0
:010983002251
:10098400E4FDFCEFFBC3ED9BEC94005018758D4B1C
:10099400758BFDC28FD28E308FFDC28FC28E0DBD7E
:0509A40000010C80DEE3
:0109A900222B
:1009D000E4FDFCC3ED9FEC9E5018758CFC758A19E4
:1009E000C28DD28C308DFDC28DC28C0DBD00010C2C
:0209F00080E1A4
:0109F20022E2
:050AA7007F01020A5D61
:080937008E378F388C398D3AA0
:10093F007F017E00E4FBEBC3953AE5396480F874E0
:0E094F008098500AAC37AD381204530B80E884
:01095D002277
:04086C008A338B340C
:10087000120A49853536E536D39400402FE53624F3
:10088000FFFDE434FFFC7F0A7E00120937AC33AD74
:1008900034CFCDCFCECCCE1204BA7C007D0A120468
:0C08A000BAED2430FF120A6F153680CA32
:0108AC002229
:0A0A9D008B31120A49AF31020A6FD3
:0609AA008B318A32893313
:1009B000120A49E4F534AB31AA32A9338534827581
:0F09C0008300120426FF6007120A6F053480E7D8
:0109CF002205
:1009F3007FC0120A5DE4F510F5117F20120A6F051E
:100A030011E51170020510C39410E5106480948001
:020A130040E8B9
:010A150022BE
:02090E008F0D4B
:100910007FC0120A5DE4F50EF50FC3E50F950D7467
:1009200080F8650E98500F7F20120A6F050FE50FB3
:0609300070E8050E80E4F2
:01093600229E
:10082900120A351207398F248E238D228C217FE8F5
:100839007E031209D01206538F288E278D268C2508
:100849007FE87E031209D0AF24AE23AD22AC21ABE1
:1008590028AA27A926A8251202A160C740C5120AFD
:030869001680C036
:100003000203C4E86480F8E933E83360110460F064
:10001300ED33EC337009E8FCE9FDEAFEEBFF220463
:1000230060DED3EB9FEA9EE99DE8C2E78CF0C2F75E
:1000330095F0400CE8CCF8E9CDF9EACEFAEBCFFB2A
:1000430012038F85D0F05804700320D5B3E80470F1
:10005300075002B2D50203CE92D5EC0460F7E4CC8C
:10006300C0E0C398F8603B94186008400DD0E0FBF3
:100073000203A6E4FBFAC9FC8028E830E406E4C9DD
:10008300FBE4CAFCE830E305E4C9CACBFCE8540747
:100093006010F8C3E913F9EA13FAEB13FBEC13FC52
:1000A300D8F130F52FC3E49CFCEF9BFFEE9AFEEDF5
:1000B30099FDD0E0FBEF4E4D4C701222DB0302039F
:1000C300CBEC2CFCEF33FFEE33FEED33FDED30E7ED
:1000D300EB0203A6EF2BFFEE3AFEED39FDD0E0FB7A
:1000E30050130BBB00030203CEED13FDEE13FEEF23
:0800F30013FFEC13FC0203A64D
:1000FB00EC4D6011E8497017ED33EC3304600DE4FF
:10010B00FCFFFEFD22E933E8330470F80203C4124E
:10011B00038F58046009E4CC24815006285009024F
:10012B0003CE2840030203CBC0E0EB4A7044B980F6
:10013B0006D0E0FB0203BAEF4E701CBD8008EBFF4C
:10014B00EAFEE9FD80EBE98DF0A4FEE5F00201E4A7
:10015B00E9CDF9EAFEEBFFEF89F0A4FCE5F0CE89DF
:10016B00F0A42EFFE435F0CD89F0A42DFEE435F09C
:10017B008067EF4E7005BD80D780C3EF8BF0A4ACCA
:10018B00F0EE8BF0A42CFCE435F0F8EF8AF0A42C05
:10019B00E5F038FCE433CB8DF0A42CFCE5F03BF818
:1001AB00EE8AF0A42CFCE5F038F8E433CF89F0A408
:1001BB002CFCE5F038CF3400CE89F0A42FFFE5F00E
:1001CB003EFEE433C98DF0A42EFEE5F039CD8AF066
:1001DB00A42FFFE5F03EFEE43DFD33D0E0FB5007DE
:1001EB000BBB000F0203CEEC2CFCEF33FFEE33FE08
:0601FB00ED33FD0203A636
:100201000203CEEC5D046005E8590470030203C4E7
:1002110012038F580460F6EC4860F2EC7004FDFEA6
:10022100FF22C860DB2481C85009C39860025006D0
:100231000203CB9850CAF582E9294B4A7005AB827B
:100241000203BA75F0007C1A7880C3EF9BEE9AED39
:1002510099400DC3EF9BFFEE9AFEED99FDE842F048
:10026100DC23ACF0D0E0FFD0E0FED0E0FDAB82209B
:10027100E7101BEB60BAEC2CFCEF33FFEE33FEED25
:1002810033FD0203A6E803F830E705C0F075F0007E
:10029100EF2FFFEE33FEED33FD40B830E7C280AA09
:1002A10074F8CC6480CCC86480C8F58204604FC304
:1002B100EB9FF5F0EA9E42F0E99D42F0E89C45F0A3
:1002C100603C501DE5825FFFE582D313CB5BCBF42D
:1002D1002B5582FB50280ABA002409B90020088056
:1002E1001DE5825BFBE582D313CF5FCFF4C3132FF0
:1002F1005582FF50090EBE00050DBD00010CC3EB78
:100301009FF5F0EA9E42F0E99D42F0E89C45F060DD
:0903110007CC4820E701B3EC22FF
:10031A0075F020800E75F010800575F0087D007E5E
:10032A00007F003392D530D5031204F0EC3340102D
:10033A00EF33FFEE33FEED33FDEC33FCD5F0ED2267
:0E034A00E5F0247EA2D513CC92E7CDCEFF22A3
:10035800EDD2E7CD33EC3392D524814006E4FFFE9D
:10036800FDFC22FCE4CFCECDCC24E0501174FF80FC
:10037800EDC3CC13CCCD13CDCE13CECF13CF047099
:07038800F030D5DE0204F0A5
:10051E003E9248DA3ECCCCCD3F2AAAAB400000003A
:10052E003F8000003F9837F03FB504F33FD744FCBF
:10053E003E3172173EB172173F0515913EDE5BD903
:10054E00D2008002C200EDD2E7F8CD33EC33047056
:10055E000BBD800592D50203CE0203C440FBD3141B
:10056E0060F2F5F07C3FEE7A00C39496C8948B400F
:10057E00230AC89469C8941A401A0AC89468C89481
:10058E001F40110AC8945AC89425400805F07A00F5
:10059E00CDC2E7CDC0F08C318D328E338F34EA234D
:1005AE0023C0E0242EF582E43405F58312050E12E5
:1005BE00000AECC0E0EDC0E0EEC0E0EFC0E01204D7
:1005CE00FEA831A932AA33AB34120006D0E0FBD01C
:1005DE00E0FAD0E0F9D0E0B2E7F81202048C318DE7
:1005EE00328E338F3490051E74031203D9A831A9AD
:1005FE0032AA33AB341200FBD0E0600F243AF582FE
:10060E00E43405F58312050E12000A8C318D328EFC
:10061E00338F34D0E0C3947FFDE49400FC12031FAB
:10062E007B187A727931783F1200FBA831A932AA71
:10063E0033AB3412000A30000B7BD97A5B79DE784B
:05064E003E1200FB223A
:10038F00E9D2E7C933E833F892D5EDD2E7CD33ECB4
:07039F0033FC5002B2D5222D
:1003A600EC30E7100FBF000C0EBE00080DBD0004B8
:1003B6000BEB6014A2D5EB13FCED92E7FD2274FF64
:1003C600FCFDFEFF22E480F8A2D574FF13FC7D80BD
:0303D600E480EFD1
:1003D900C0E0EFFBEEFAEDF9ECF81200FBD0E0F526
:1003E900F0EFFBEEFAEDF9ECF81204FEA3A3A3A3D8
:1003F900E8C0E0E9C0E0EAC0E0EBC0E0C0F012000C
:10040900FB12050EA3A3A3A312000AD0F0D0E0FBB0
:0D041900D0E0FAD0E0F9D0E0F8D5F0D42220
:03000000020A9160
:0C0A9100787FE4F6D8FD75813A02082950
:10042600BB010CE58229F582E5833AF583E022508B
:1004360006E92582F8E622BBFE06E92582F8E222D5
:0D044600E58229F582E5833AF583E49322EF
:10045300EF8DF0A4A8F0CF8CF0A428CE8DF0A42EBD
:02046300FE2277
:10046500BC000BBE0029EF8DF084FFADF022E4CC7B
:10047500F875F008EF2FFFEE33FEEC33FCEE9DEC44
:10048500984005FCEE9DFE0FD5F0E9E4CEFD22ED8A
:10049500F8F5F0EE8420D21CFEADF075F008EF2FD4
:1004A500FFED33FD4007985006D5F0F222C398FDC5
:0504B5000FD5F0EA2262
:1004BA00C2D5EC30E709B2D5E4C39DFDE49CFCEE5D
:1004CA0030E715B2D5E4C39FFFE49EFE120465C36C
:1004DA00E49DFDE49CFC800312046530D507C3E467
:0604EA009FFFE49EFE22CC
:0E04F000C3E49FFFE49EFEE49DFDE49CFC221D
:1004FE00E493FC740193FD740293FE740393FF2244
:10050E00E493F8740193F9740293FA740393FB2243
:00000001FF
