:10050900563A004C445200574150444120535550EB
:10051900504C59204F4E0052454D4F564548454184
:100529005659204C4F414400456E6A6F7920446109
:080539007920736F6C61720000
:10042600E4F512C2B6C2B5C2B6D2B4D2B6C2B6A24C
:100436000292B4D2B6C2B6A20192B4D2B6C2B6A2E3
:100446000092B4D2B6C2B6D2B4D2B6C2B6D2B4D282
:10045600B6C2B6D2B4D2B6C2B6D2B4D2B6C2B67FDD
:100466000AFE12062EE4FFE51225E0F512D2B6C208
:0F047600B6A2B7E43342120FBF08ECD2B5AF12F3
:010485002254
:10031900D200C201C2021204267E00AD077C00E4AD
:100329001201877BA17AA079A0783C1200038F1172
:100339008E108D0F8C0E7BFF7A057909E4FDFF1273
:100349000608AF11AE10AD0FAC0E1201C0AB07AA73
:10035900067516017D03E4FF1204C87B2E7D04E4B3
:10036900FF1206CCE4FFFE7D7A7C44AB11AA10A9EA
:100379000FA80E1200031201C07C037DE81202804F
:10038900AA04AB057516037D05E4FF1204C87FE8CE
:0D0399007E0312062EAF11AE10AD0FAC0E9C
:0103A6002234
:10048600C200D201C2021204267E007C007D6412E4
:10049600026E7DFF1202808E0E8F0F7BFF7A05792A
:1004A6000C7D09E4FF120608751603AB0FAA0E7D34
:1004B6000DE4FF1204C87FE87E0312062EAE0EAFCF
:0104C6000F26
:0104C7002212
:1003A7001203198F0B8E0A8D098C087FE87E0312C2
:1003B700062E1204868E0C8F0D7FE87E0312062E02
:1003C700C3E50D941EE50C9400503CE4FFFE7D80D0
:1003D7007C40AB0BAA0AA909A8081201094014120C
:1003E70006517BFF7A057910E4FD7F01120608D2DA
:1003F700A080241206517BFF7A057920E4FD7F0156
:10040700120608C2A080101206517BFF7A057931C7
:0E041700E4FD7F011206087FE87E0312062E28
:0104250022B4
:100674007F3812069C7F0C12069C7F0112069C7F19
:040684008002069C4E
:10069C008F80C2A5C2A61205BCC2A77F0A7E00022B
:0206AC0005C285
:1006AE008F80C2A5D2A61205BCC2A77F0A7E000209
:0206BE0005C273
:060541008B218A228923B0
:10054700E4F524F525AB21AA22A923852582852454
:1005570083120241FF600D1206AE0525E52570E501
:04056700052480E106
:01056B00226D
:10068800EF7007ED2480F5188005ED24C0F518AF4C
:040698001802069CA2
:0605BC00D2A77F0A7E00B9
:1005C200E4FDFCC3ED9FEC9E5015E4FBFA0BBB006F
:0F05D200010AEB64704A70F50DBD00010C80E466
:0105E10022F7
:1005E200E4FDFCEFFBC3ED9BEC94005018758D4BC2
:1005F200758BFDC28FD28E308FFDC28FC28E0DBD24
:0506020000010C80DE88
:0106070022D0
:10062E00E4FDFCC3ED9FEC9E5018758CFC758A1989
:10063E00C28DD28C308DFDC28DC28C0DBD00010CD1
:02064E0080E149
:010650002287
:0506DE007F0102069CF3
:080595008E188F198C1A8D1BC2
:10059D007F017E00E4FBEBC3951BE51A6480F874C4
:0E05AD008098500AAC18AD1912026E0B80E84F
:0105BB00221D
:0404C8008A148B15F2
:1004CC00120688851617E517D39400402FE51724DC
:1004DC00FFFDE434FFFC7F0A7E00120595AC14ADE1
:1004EC0015CFCDCFCECCCE1202D57C007D0A120218
:0C04FC00D5ED2430FF1206AE151780CAA3
:0105080022D0
:0A06CC008B12120688AF120206AE70
:060608008B128A13891415
:10060E00120688E4F515AB12AA13A9148515827586
:0F061E008300120241FF60071206AE051580E748
:01062D0022AA
:100651007FC012069CE4F50EF50F7F201206AE0551
:100661000FE50F7002050EC39410E50E64809480AF
:0206710040E85F
:010673002264
:02056C008F1CE2
:10056E007FC012069CE4F51DF51EC3E51E951C7496
:10057E0080F8651D98500F7F201206AE051EE51EF1
:06058E0070E8051D80E489
:010594002244
:0806D6001206741203A780FB59
:10000300EC4D6011E8497017ED33EC3304600DE4F7
:10001300FCFFFEFD22E933E8330470F802022C12E0
:1000230001F758046009E4CC2481500628500902E2
:100033000236284003020233C0E0EB4A7044B98021
:1000430006D0E0FB020222EF4E701CBD8008EBFFDE
:10005300EAFEE9FD80EBE98DF0A4FEE5F00200EC99
:10006300E9CDF9EAFEEBFFEF89F0A4FCE5F0CE89D8
:10007300F0A42EFFE435F0CD89F0A42DFEE435F095
:100083008067EF4E7005BD80D780C3EF8BF0A4ACC3
:10009300F0EE8BF0A42CFCE435F0F8EF8AF0A42CFE
:1000A300E5F038FCE433CB8DF0A42CFCE5F03BF811
:1000B300EE8AF0A42CFCE5F038F8E433CF89F0A401
:1000C3002CFCE5F038CF3400CE89F0A42FFFE5F007
:1000D3003EFEE433C98DF0A42EFEE5F039CD8AF05F
:1000E300A42FFFE5F03EFEE43DFD33D0E0FB5007D7
:1000F3000BBB000F020236EC2CFCEF33FFEE33FE9A
:06010300ED33FD02020EC7
:1001090074F8CC6480CCC86480C8F58204604FC39D
:10011900EB9FF5F0EA9E42F0E99D42F0E89C45F03C
:10012900603C501DE5825FFFE582D313CB5BCBF4C6
:100139002B5582FB50280ABA002409B900200880EF
:100149001DE5825BFBE582D313CF5FCFF4C3132F89
:100159005582FF50090EBE00050DBD00010CC3EB11
:100169009FF5F0EA9E42F0E99D42F0E89C45F06077
:0901790007CC4820E701B3EC2299
:1001820075F020800E75F010800575F0087D007EF8
:10019200007F003392D530D50312030BEC334010AD
:1001A200EF33FFEE33FEED33FDEC33FCD5F0ED2201
:0E01B200E5F0247EA2D513CC92E7CDCEFF223D
:1001C000EDD2E7CD33EC3392D524814006E4FFFE37
:1001D000FDFC22FCE4CFCECDCC24E0501174FF8096
:1001E000EDC3CC13CCCD13CDCE13CECF13CF047033
:0701F000F030D5DE02030B25
:1001F700E9D2E7C933E833F892D5EDD2E7CD33EC4E
:0702070033FC5002B2D522C6
:10020E00EC30E7100FBF000C0EBE00080DBD000451
:10021E000BEB6014A2D5EB13FCED92E7FD2274FFFD
:10022E00FCFDFEFF22E480F8A2D574FF13FC7D8056
:03023E00E480EF6A
:030000000206C035
:0C06C000787FE4F6D8FD7581250206D68F
:10024100BB010CE58229F582E5833AF583E0225072
:1002510006E92582F8E622BBFE06E92582F8E222BC
:0D026100E58229F582E5833AF583E49322D6
:10026E00EF8DF0A4A8F0CF8CF0A428CE8DF0A42EA4
:02027E00FE225E
:10028000BC000BBE0029EF8DF084FFADF022E4CC62
:10029000F875F008EF2FFFEE33FEEC33FCEE9DEC2B
:1002A000984005FCEE9DFE0FD5F0E9E4CEFD22ED71
:1002B000F8F5F0EE8420D21CFEADF075F008EF2FBB
:1002C000FFED33FD4007985006D5F0F222C398FDAC
:0502D0000FD5F0EA2249
:1002D500C2D5EC30E709B2D5E4C39DFDE49CFCEE44
:1002E50030E715B2D5E4C39FFFE49EFE120280C33A
:1002F500E49DFDE49CFC800312028030D507C3E435
:060305009FFFE49EFE22B2
:0E030B00C3E49FFFE49EFEE49DFDE49CFC2203
:00000001FF
