:10002C00D3EF9400EE940040147D6E7C00ED1D70B7
:0D003C00011CED4C70F7EF1F70E61E80E315
:010049002294
:05008500D2B5C2B62255
:10000300E4FEFDEF5480C4131313540124FF92B490
:10001300EF25E0FFD2B6EE25E0FE30B7034306013D
:08002300C2B60DBD08DDAF06F9
:01002B0022B2
:10004A00C2B5120003E4FF120003EF7B00FAE4FFDB
:07005A00120003D2B5AE0253
:01006100227C
:100062001200857F907E0012004A8E088F097FF46D
:070072007E0112002C80EC5E
:0300000002007982
:0C007900787FE4F6D8FD75810902006272
:00000001FF
