:0708780054656D703A200089
:1006A300E4F510C2B6C2B5C2B6D2B4D2B6C2B6A2CF
:1006B3000292B4D2B6C2B6A20192B4D2B6C2B6A264
:1006C3000092B4D2B6C2B6D2B4D2B6C2B6D2B4D203
:1006D300B6C2B6D2B4D2B6C2B6D2B4D2B6C2B67F5E
:1006E3000AFE1207D7E4FFE51025E0F510D2B6C2E3
:0F06F300B6A2B7E43342100FBF08ECD2B5AF1078
:0107020022D4
:1005BD00D200C201D2021206A37E00AD077C00E478
:1005CD001202A6A804A905AA06AB07E4FFFE7D7FCB
:1005DD007C43120204E4FBFA798078BF12000A1200
:1005ED0004BC7B637A1D799B78391200FB7B0F7AF3
:1005FD00CF795B783B12000AA804A905AA06AB07C0
:10060D00E4FFFE7D807C3F1202048F0B8E0A8D0964
:10061D008C087F337E937D887CC3AB0BAA0AA90916
:10062D00A80812000A8F0F8E0E8D0D8C0C7BFF7A91
:10063D00087978E4FD7F01120767AF0FAE0EAD0D9F
:10064D00AC0C1202DFAB07AA06751402E4FD7F02A3
:10065D001207037B2E7D027F02120866E4FFFE7DEA
:10066D007A7C44AB0FAA0EA90DA80C1200FB120246
:10067D00DF7C037DE8120405AA04AB057514037D28
:10068D00037F021207037B437D067F021208667FFC
:06069D00E87E030207D70E
:0808700012081C1205BD80FBFB
:1007D700E4FDFCC3ED9FEC9E5018758DFC758B6690
:1007E700C28FD28E308FFDC28FC28E0DBD00010C1D
:0207F70080E19F
:0107F90022DD
:0607FA00C2A5EB54F0FF64
:10080000EFA2E49284A2E59285A2E69286339287D3
:0C081000D2A77F047E001207D7C2A722E7
:0F083C00AB07C2A61207FAEBC454F0FF02080084
:0F084B00AB07D2A61207FAEBC454F0FF02080065
:10078D008B198A1A891BAB19AA1AA91B1203AD6002
:10079D0013051BE51B7002051A14F91203ADFF12A8
:0507AD00084B80E22270
:10081C007F647E001207D77F0212083C7F281208E3
:10082C003C7F0C12083C7F0112083C7F8002083C84
:0407B2007E007C0049
:1007B6008E158F16E516640145157005ED248080AB
:1007C6000BE516640245157007ED24C0FF12083CC0
:0107D6002200
:080740008E158F168C178D1821
:100748007F017E00E4FBEBC39518E5176480F8741D
:0E0758008098500AAC15AD161203F30B80E822
:010766002270
:040703008A128B13B8
:100707001207B2AA14EAD39400402DEA24FFFDE4AD
:1007170034FFFC7F0A7E00120740AC12AD13CFCD29
:10072700CFCECCCE1204057C007D0A120405ED2441
:0807370030FF12084B1A80CDBF
:01073F002297
:0A086600AA031207B2AF0202084B0A
:060767008B108A118912BB
:10076D001207B2E4F513AB10AA11A9128513827505
:0F077D0083001203C6FF600712084B051380E7C5
:01078C00224A
:1000030002034BE86480F8E933E83360110460F0DD
:10001300ED33EC337009E8FCE9FDEAFEEBFF220463
:1000230060DED3EB9FEA9EE99DE8C2E78CF0C2F75E
:1000330095F0400CE8CCF8E9CDF9EACEFAEBCFFB2A
:1000430012031685D0F05804700320D5B3E804706A
:10005300075002B2D502035592D5EC0460F7E4CC05
:10006300C0E0C398F8603B94186008400DD0E0FBF3
:1000730002032DE4FBFAC9FC8028E830E406E4C956
:10008300FBE4CAFCE830E305E4C9CACBFCE8540747
:100093006010F8C3E913F9EA13FAEB13FBEC13FC52
:1000A300D8F130F52FC3E49CFCEF9BFFEE9AFEEDF5
:1000B30099FDD0E0FBEF4E4D4C701222DB0302039F
:1000C30052EC2CFCEF33FFEE33FEED33FDED30E766
:1000D300EB02032DEF2BFFEE3AFEED39FDD0E0FBF3
:1000E30050130BBB0003020355ED13FDEE13FEEF9C
:0800F30013FFEC13FC02032DC6
:1000FB00EC4D6011E8497017ED33EC3304600DE4FF
:10010B00FCFFFEFD22E933E8330470F802034B12C7
:10011B00031658046009E4CC2481500628500902C8
:10012B000355284003020352C0E0EB4A7044B980E8
:10013B0006D0E0FB020341EF4E701CBD8008EBFFC5
:10014B00EAFEE9FD80EBE98DF0A4FEE5F00201E4A7
:10015B00E9CDF9EAFEEBFFEF89F0A4FCE5F0CE89DF
:10016B00F0A42EFFE435F0CD89F0A42DFEE435F09C
:10017B008067EF4E7005BD80D780C3EF8BF0A4ACCA
:10018B00F0EE8BF0A42CFCE435F0F8EF8AF0A42C05
:10019B00E5F038FCE433CB8DF0A42CFCE5F03BF818
:1001AB00EE8AF0A42CFCE5F038F8E433CF89F0A408
:1001BB002CFCE5F038CF3400CE89F0A42FFFE5F00E
:1001CB003EFEE433C98DF0A42EFEE5F039CD8AF066
:1001DB00A42FFFE5F03EFEE43DFD33D0E0FB5007DE
:1001EB000BBB000F020355EC2CFCEF33FFEE33FE81
:0601FB00ED33FD02032DAF
:10020100020355EC5D046005E85904700302034BD9
:10021100120316580460F6EC4860F2EC7004FDFE1F
:10022100FF22C860DB2481C85009C39860025006D0
:100231000203529850CAF582E9294B4A7005AB82F4
:1002410002034175F0007C1A7880C3EF9BEE9AEDB2
:1002510099400DC3EF9BFFEE9AFEED99FDE842F048
:10026100DC23ACF0D0E0FFD0E0FED0E0FDAB82209B
:10027100E7101BEB60BAEC2CFCEF33FFEE33FEED25
:1002810033FD02032DE803F830E705C0F075F000F7
:10029100EF2FFFEE33FEED33FD40B830E7C280AA09
:1002A10075F020800E75F010800575F0087D007ED8
:1002B100007F003392D530D50312045AEC3340103D
:1002C100EF33FFEE33FEED33FDEC33FCD5F0ED22E1
:0E02D100E5F0247EA2D513CC92E7CDCEFF221D
:1002DF00EDD2E7CD33EC3392D524814006E4FFFE17
:1002EF00FDFC22FCE4CFCECDCC24E0501174FF8076
:1002FF00EDC3CC13CCCD13CDCE13CECF13CF047013
:07030F00F030D5DE02045AB4
:100488003E9248DA3ECCCCCD3F2AAAAB40000000D1
:100498003F8000003F9837F03FB504F33FD744FC56
:1004A8003E3172173EB172173F0515913EDE5BD99A
:1004B800D2008002C200EDD2E7F8CD33EC330470ED
:1004C8000BBD800592D502035502034B40FBD314A4
:1004D80060F2F5F07C3FEE7A00C39496C8948B40A6
:1004E800230AC89469C8941A401A0AC89468C89418
:1004F8001F40110AC8945AC89425400805F07A008C
:10050800CDC2E7CDC0F08C108D118E128F13EA2367
:1005180023C0E02498F582E43404F58312047812A9
:10052800000AECC0E0EDC0E0EEC0E0EFC0E012046D
:1005380068A810A911AA12AB13120006D0E0FBD0CC
:10054800E0FAD0E0F9D0E0B2E7F81202048C108D9E
:10055800118E128F139004887403120360A810A9D7
:1005680011AA12AB131200FBD0E0600F24A4F5828D
:10057800E43404F58312047812000A8C108D118E6D
:10058800128F13D0E0C3947FFDE49400FC1202A6FE
:100598007B187A727931783F1200FBA810A911AA4A
:1005A80012AB1312000A30000B7BD97A5B79DE7824
:0505B8003E1200FB22D1
:10031600E9D2E7C933E833F892D5EDD2E7CD33EC2D
:0703260033FC5002B2D522A6
:10032D00EC30E7100FBF000C0EBE00080DBD000431
:10033D000BEB6014A2D5EB13FCED92E7FD2274FFDD
:10034D00FCFDFEFF22E480F8A2D574FF13FC7D8036
:03035D00E480EF4A
:10036000C0E0EFFBEEFAEDF9ECF81200FBD0E0F59F
:10037000F0EFFBEEFAEDF9ECF8120468A3A3A3A3E7
:10038000E8C0E0E9C0E0EAC0E0EBC0E0C0F0120085
:10039000FB120478A3A3A3A312000AD0F0D0E0FBC1
:0D03A000D0E0FAD0E0F9D0E0F8D5F0D4229A
:0300000002085A99
:0C085A00787FE4F6D8FD7581200208705C
:1003AD00BB010689828A83E0225002E722BBFE024E
:0903BD00E32289828A83E4932281
:1003C600BB010CE58229F582E5833AF583E02250EC
:1003D60006E92582F8E622BBFE06E92582F8E22236
:0D03E600E58229F582E5833AF583E4932250
:1003F300EF8DF0A4A8F0CF8CF0A428CE8DF0A42E1E
:02040300FE22D7
:10040500BC000BBE0029EF8DF084FFADF022E4CCDB
:10041500F875F008EF2FFFEE33FEEC33FCEE9DECA4
:10042500984005FCEE9DFE0FD5F0E9E4CEFD22EDEA
:10043500F8F5F0EE8420D21CFEADF075F008EF2F34
:10044500FFED33FD4007985006D5F0F222C398FD25
:050455000FD5F0EA22C2
:0E045A00C3E49FFFE49EFEE49DFDE49CFC22B3
:10046800E493FC740193FD740293FE740393FF22DA
:10047800E493F8740193F9740293FA740393FB22DA
:00000001FF
