:03000000020615E0
:0C061500787FE4F6D8FD75812002062BEA
:1004D000563A004C44520057415044412053555025
:1004E000504C59204F4E0052656D6F7665486561DE
:1004F0007679206C6F61640044617920456E6A6F83
:090500007920536F6C6172200038
:1003F100E4F512C2B6C2B5C2B6D2B4D2B6C2B6A282
:100401000292B4D2B6C2B6A20192B4D2B6C2B6A218
:100411000092B4D2B6C2B6D2B4D2B6C2B6D2B4D2B7
:10042100B6C2B6D2B4D2B6C2B6D2B4D2B6C2B67F12
:100431000AFE12057BE4FFE51225E0F512D2B6C2F1
:0F044100B6A2B7E43342120FBF08ECD2B5AF1228
:010450002289
:1002E300D200C201C2021203F17E00AD077C00E41A
:1002F3001201877BA17AA079A0783C1200038F11A9
:100303008E108D0F8C0E7BFF7A0479D0E4FD7F0174
:10031300120530AF11AE10AD0FAC0E1201C0AB071A
:10032300AA067516017D037F011204937B2E7D04BB
:100333007F01120621E4FFFE7D7A7C44AB11AA10F3
:10034300A90FA80E1200031201C07C037DE812025C
:1003530080AA04AB057516037D057F011204937F04
:0E036300E87E0312057BAF11AE10AD0FAC0E9D
:010371002269
:10045100C200D201C2021203F17E007C007D64124F
:10046100026E7DFF1202808E0E8F0F7BFF7A047960
:10047100D37D097F01120530751603AB0FAA0E7DDE
:100481000D7F011204937FE87E0312057BAE0EAF50
:010491000F5B
:010492002247
:100372001202E38F0B8E0A8D098C087FE87E03122E
:10038200057B1204518E0C8F0D7FE87E0312057BD4
:10039200C3E50D941EE50C9400503CE4FFFE7D8005
:1003A2007C40AB0BAA0AA909A80812010940141241
:1003B20005E07BFF7A0479D7E4FD7F02120530D293
:1003C200A080241205E07BFF7A0479E7E4FD7F0236
:1003D200120530C2A080101205E07BFF7A0479F882
:0E03E200E4FD7F021205307FE87E0312057BEA
:0103F00022EA
:08062B001205C012037280FBEE
:10057B00E4FDFCC3ED9FEC9E5018758DFC758B193B
:10058B00C28FD28E308FFDC28FC28E0DBD00010C7B
:02059B0080E1FD
:01059D00223B
:06059E00C2A5EB54F0FFC2
:1005A400EFA2E49284A2E59285A2E6928633928732
:0C05B400D2A77F017E0012057BC2A722A7
:0F05F700AB07C2A612059EEBC454F0FF0205A489
:0F060600AB07D2A612059EEBC454F0FF0205A469
:1005C0007F647E0012057B7F021205F77F281205EB
:1005D000F77F0C1205F77F011205F77F800205F700
:040556007E007C00A7
:10055A008E178F18E518640145177005ED24808001
:10056A000BE518640245177007ED24C0FF1205F762
:01057A00225E
:080509008E178F188C198D1A52
:100511007F017E00E4FBEBC3951AE5196480F87452
:0E0521008098500AAC17AD1812026E0B80E8DD
:01052F0022A9
:040493008A148B1527
:10049700120556AA16EAD39400402DEA24FFFDE47C
:1004A70034FFFC7F0A7E00120509AC14AD15CFCDD1
:1004B700CFCECCCE1202807C007D0A120280ED24C2
:0804C70030FF1206061A80CD79
:0104CF00220A
:0A062100AA03120556AF02020606F6
:060530008B128A138914EE
:10053600120556E4F515AB12AA13A9148515827592
:0F0546008300120241FF6007120606051580E7C9
:010555002283
:1005E0007FC01205F79000007F20120606A3E58267
:0605F0006410458370F267
:0105F60022E2
:10000300EC4D6011E8497017ED33EC3304600DE4F7
:10001300FCFFFEFD22E933E8330470F802022C12E0
:1000230001F758046009E4CC2481500628500902E2
:100033000236284003020233C0E0EB4A7044B98021
:1000430006D0E0FB020222EF4E701CBD8008EBFFDE
:10005300EAFEE9FD80EBE98DF0A4FEE5F00200EC99
:10006300E9CDF9EAFEEBFFEF89F0A4FCE5F0CE89D8
:10007300F0A42EFFE435F0CD89F0A42DFEE435F095
:100083008067EF4E7005BD80D780C3EF8BF0A4ACC3
:10009300F0EE8BF0A42CFCE435F0F8EF8AF0A42CFE
:1000A300E5F038FCE433CB8DF0A42CFCE5F03BF811
:1000B300EE8AF0A42CFCE5F038F8E433CF89F0A401
:1000C3002CFCE5F038CF3400CE89F0A42FFFE5F007
:1000D3003EFEE433C98DF0A42EFEE5F039CD8AF05F
:1000E300A42FFFE5F03EFEE43DFD33D0E0FB5007D7
:1000F3000BBB000F020236EC2CFCEF33FFEE33FE9A
:06010300ED33FD02020EC7
:1001090074F8CC6480CCC86480C8F58204604FC39D
:10011900EB9FF5F0EA9E42F0E99D42F0E89C45F03C
:10012900603C501DE5825FFFE582D313CB5BCBF4C6
:100139002B5582FB50280ABA002409B900200880EF
:100149001DE5825BFBE582D313CF5FCFF4C3132F89
:100159005582FF50090EBE00050DBD00010CC3EB11
:100169009FF5F0EA9E42F0E99D42F0E89C45F06077
:0901790007CC4820E701B3EC2299
:1001820075F020800E75F010800575F0087D007EF8
:10019200007F003392D530D5031202D5EC334010E4
:1001A200EF33FFEE33FEED33FDEC33FCD5F0ED2201
:0E01B200E5F0247EA2D513CC92E7CDCEFF223D
:1001C000EDD2E7CD33EC3392D524814006E4FFFE37
:1001D000FDFC22FCE4CFCECDCC24E0501174FF8096
:1001E000EDC3CC13CCCD13CDCE13CECF13CF047033
:0701F000F030D5DE0202D55C
:1001F700E9D2E7C933E833F892D5EDD2E7CD33EC4E
:0702070033FC5002B2D522C6
:10020E00EC30E7100FBF000C0EBE00080DBD000451
:10021E000BEB6014A2D5EB13FCED92E7FD2274FFFD
:10022E00FCFDFEFF22E480F8A2D574FF13FC7D8056
:03023E00E480EF6A
:10024100BB010CE58229F582E5833AF583E0225072
:1002510006E92582F8E622BBFE06E92582F8E222BC
:0D026100E58229F582E5833AF583E49322D6
:10026E00EF8DF0A4A8F0CF8CF0A428CE8DF0A42EA4
:02027E00FE225E
:10028000BC000BBE0029EF8DF084FFADF022E4CC62
:10029000F875F008EF2FFFEE33FEEC33FCEE9DEC2B
:1002A000984005FCEE9DFE0FD5F0E9E4CEFD22ED71
:1002B000F8F5F0EE8420D21CFEADF075F008EF2FBB
:1002C000FFED33FD4007985006D5F0F222C398FDAC
:0502D0000FD5F0EA2249
:0E02D500C3E49FFFE49EFEE49DFDE49CFC223A
:00000001FF
