:0A04E100566F6C746167653A2000E5
:10031E00E4F510C2B6C2B5C2B6D2B4D2B6C2B6A257
:10032E000292B4D2B6C2B6A20192B4D2B6C2B6A2EC
:10033E000092B4D2B6C2B6D2B4D2B6C2B6D2B4D28B
:10034E00B6C2B6D2B4D2B6C2B6D2B4D2B6C2B67FE6
:10035E000AFE120452E4FFE51025E0F510D2B6C2F3
:0F036E00B6A2B7E43342100FBF08ECD2B5AF1000
:01037D00225D
:10028300D200C201C20212031EAC07E41201138F93
:100293000F8E0E8D0D8C0C7FA17EA07DA07C3CABC0
:1002A3000FAA0EA90DA80C1200038F0B8E0A8D093D
:1002B3008C087BFF7A0479E1E4FD7F011203E2AF4E
:1002C3000BAE0AAD09AC08120147AB07AA067514B9
:1002D300017D017F0212037E7B2E7D027F021204C9
:1002E300EBE4FFFE7D7A7C44AB0BAA0AA909A808BC
:1002F3001200031201477C037DE8120220AA04AB1B
:10030300057514037D037F0212037E7B567D067FF2
:0B031300021204EB7FE87E030204529C
:0804F50012049712028380FB40
:10045200E4FDFCC3ED9FEC9E5018758DFC758B6618
:10046200C28FD28E308FFDC28FC28E0DBD00010CA5
:0204720080E127
:010474002265
:06047500C2A5EB54F0FFEC
:10047B00EFA2E49284A2E59285A2E692863392875C
:0C048B00D2A77F047E00120452C2A722F8
:0F04B700AB07C2A6120475EBC454F0FF02047B1E
:0F04C600AB07D2A6120475EBC454F0FF02047BFF
:100408008B198A1A891BAB19AA1AA91B1201C86071
:1004180013051BE51B7002051A14F91201C8FF1217
:0504280004C680E22281
:100497007F647E001204527F021204B77F28120481
:1004A700B77F0C1204B77F011204B77F800204B72D
:04042D007E007C00D1
:100431008E158F16E516640145157005ED24808033
:100441000BE516640245157007ED24C0FF1204B7D1
:010451002288
:0803BB008E158F168C178D18AA
:1003C3007F017E00E4FBEBC39518E5176480F874A6
:0E03D3008098500AAC15AD1612020E0B80E891
:0103E10022F9
:04037E008A128B1341
:1003820012042DAA14EAD39400402DEA24FFFDE4BE
:1003920034FFFC7F0A7E001203BBAC12AD13CFCD3B
:1003A200CFCECCCE1202207C007D0A120220ED2498
:0803B20030FF1204C61A80CDD1
:0103BA002220
:0A04EB00AA0312042DAF020204C69A
:0603E2008B108A11891244
:1003E80012042DE4F513AB10AA11A9128513827516
:0F03F80083001201E1FF60071204C6051380E7BE
:0104070022D2
:10000300EC4D6011E8497017ED33EC3304600DE4F7
:10001300FCFFFEFD22E933E8330470F80201B3125A
:10002300017E58046009E4CC24815006285009025B
:1000330001BD2840030201BAC0E0EB4A7044B98015
:1000430006D0E0FB0201A9EF4E701CBD8008EBFF58
:10005300EAFEE9FD80EBE98DF0A4FEE5F00200EC99
:10006300E9CDF9EAFEEBFFEF89F0A4FCE5F0CE89D8
:10007300F0A42EFFE435F0CD89F0A42DFEE435F095
:100083008067EF4E7005BD80D780C3EF8BF0A4ACC3
:10009300F0EE8BF0A42CFCE435F0F8EF8AF0A42CFE
:1000A300E5F038FCE433CB8DF0A42CFCE5F03BF811
:1000B300EE8AF0A42CFCE5F038F8E433CF89F0A401
:1000C3002CFCE5F038CF3400CE89F0A42FFFE5F007
:1000D3003EFEE433C98DF0A42EFEE5F039CD8AF05F
:1000E300A42FFFE5F03EFEE43DFD33D0E0FB5007D7
:1000F3000BBB000F0201BDEC2CFCEF33FFEE33FE14
:06010300ED33FD02019541
:1001090075F020800E75F010800575F0087D007E71
:10011900007F003392D530D503120275EC334010BD
:10012900EF33FFEE33FEED33FDEC33FCD5F0ED227A
:0E013900E5F0247EA2D513CC92E7CDCEFF22B6
:10014700EDD2E7CD33EC3392D524814006E4FFFEB0
:10015700FDFC22FCE4CFCECDCC24E0501174FF800F
:10016700EDC3CC13CCCD13CDCE13CECF13CF0470AC
:07017700F030D5DE02027535
:10017E00E9D2E7C933E833F892D5EDD2E7CD33ECC7
:07018E0033FC5002B2D52240
:10019500EC30E7100FBF000C0EBE00080DBD0004CB
:1001A5000BEB6014A2D5EB13FCED92E7FD2274FF77
:1001B500FCFDFEFF22E480F8A2D574FF13FC7D80D0
:0301C500E480EFE4
:030000000204D522
:0C04D500787FE4F6D8FD7581200204F564
:1001C800BB010689828A83E0225002E722BBFE0235
:0901D800E32289828A83E4932268
:1001E100BB010CE58229F582E5833AF583E02250D3
:1001F10006E92582F8E622BBFE06E92582F8E2221D
:0D020100E58229F582E5833AF583E4932236
:10020E00EF8DF0A4A8F0CF8CF0A428CE8DF0A42E04
:02021E00FE22BE
:10022000BC000BBE0029EF8DF084FFADF022E4CCC2
:10023000F875F008EF2FFFEE33FEEC33FCEE9DEC8B
:10024000984005FCEE9DFE0FD5F0E9E4CEFD22EDD1
:10025000F8F5F0EE8420D21CFEADF075F008EF2F1B
:10026000FFED33FD4007985006D5F0F222C398FD0C
:050270000FD5F0EA22A9
:0E027500C3E49FFFE49EFEE49DFDE49CFC229A
:00000001FF
